{
  "_format": "hh3-artifact-1",
  "contractName": "OSBB_Token",
  "sourceName": "contracts/OSBB_DAO.sol",
  "abi": [
    {
      "inputs": [],
      "stateMutability": "nonpayable",
      "type": "constructor"
    },
    {
      "inputs": [],
      "name": "AccessControlBadConfirmation",
      "type": "error"
    },
    {
      "inputs": [
        {
          "internalType": "address",
          "name": "account",
          "type": "address"
        },
        {
          "internalType": "bytes32",
          "name": "neededRole",
          "type": "bytes32"
        }
      ],
      "name": "AccessControlUnauthorizedAccount",
      "type": "error"
    },
    {
      "inputs": [],
      "name": "CheckpointUnorderedInsertion",
      "type": "error"
    },
    {
      "inputs": [],
      "name": "ECDSAInvalidSignature",
      "type": "error"
    },
    {
      "inputs": [
        {
          "internalType": "uint256",
          "name": "length",
          "type": "uint256"
        }
      ],
      "name": "ECDSAInvalidSignatureLength",
      "type": "error"
    },
    {
      "inputs": [
        {
          "internalType": "bytes32",
          "name": "s",
          "type": "bytes32"
        }
      ],
      "name": "ECDSAInvalidSignatureS",
      "type": "error"
    },
    {
      "inputs": [
        {
          "internalType": "uint256",
          "name": "increasedSupply",
          "type": "uint256"
        },
        {
          "internalType": "uint256",
          "name": "cap",
          "type": "uint256"
        }
      ],
      "name": "ERC20ExceededSafeSupply",
      "type": "error"
    },
    {
      "inputs": [
        {
          "internalType": "address",
          "name": "spender",
          "type": "address"
        },
        {
          "internalType": "uint256",
          "name": "allowance",
          "type": "uint256"
        },
        {
          "internalType": "uint256",
          "name": "needed",
          "type": "uint256"
        }
      ],
      "name": "ERC20InsufficientAllowance",
      "type": "error"
    },
    {
      "inputs": [
        {
          "internalType": "address",
          "name": "sender",
          "type": "address"
        },
        {
          "internalType": "uint256",
          "name": "balance",
          "type": "uint256"
        },
        {
          "internalType": "uint256",
          "name": "needed",
          "type": "uint256"
        }
      ],
      "name": "ERC20InsufficientBalance",
      "type": "error"
    },
    {
      "inputs": [
        {
          "internalType": "address",
          "name": "approver",
          "type": "address"
        }
      ],
      "name": "ERC20InvalidApprover",
      "type": "error"
    },
    {
      "inputs": [
        {
          "internalType": "address",
          "name": "receiver",
          "type": "address"
        }
      ],
      "name": "ERC20InvalidReceiver",
      "type": "error"
    },
    {
      "inputs": [
        {
          "internalType": "address",
          "name": "sender",
          "type": "address"
        }
      ],
      "name": "ERC20InvalidSender",
      "type": "error"
    },
    {
      "inputs": [
        {
          "internalType": "address",
          "name": "spender",
          "type": "address"
        }
      ],
      "name": "ERC20InvalidSpender",
      "type": "error"
    },
    {
      "inputs": [
        {
          "internalType": "uint256",
          "name": "deadline",
          "type": "uint256"
        }
      ],
      "name": "ERC2612ExpiredSignature",
      "type": "error"
    },
    {
      "inputs": [
        {
          "internalType": "address",
          "name": "signer",
          "type": "address"
        },
        {
          "internalType": "address",
          "name": "owner",
          "type": "address"
        }
      ],
      "name": "ERC2612InvalidSigner",
      "type": "error"
    },
    {
      "inputs": [
        {
          "internalType": "uint256",
          "name": "timepoint",
          "type": "uint256"
        },
        {
          "internalType": "uint48",
          "name": "clock",
          "type": "uint48"
        }
      ],
      "name": "ERC5805FutureLookup",
      "type": "error"
    },
    {
      "inputs": [],
      "name": "ERC6372InconsistentClock",
      "type": "error"
    },
    {
      "inputs": [
        {
          "internalType": "address",
          "name": "account",
          "type": "address"
        },
        {
          "internalType": "uint256",
          "name": "currentNonce",
          "type": "uint256"
        }
      ],
      "name": "InvalidAccountNonce",
      "type": "error"
    },
    {
      "inputs": [],
      "name": "InvalidShortString",
      "type": "error"
    },
    {
      "inputs": [
        {
          "internalType": "uint8",
          "name": "bits",
          "type": "uint8"
        },
        {
          "internalType": "uint256",
          "name": "value",
          "type": "uint256"
        }
      ],
      "name": "SafeCastOverflowedUintDowncast",
      "type": "error"
    },
    {
      "inputs": [
        {
          "internalType": "string",
          "name": "str",
          "type": "string"
        }
      ],
      "name": "StringTooLong",
      "type": "error"
    },
    {
      "inputs": [
        {
          "internalType": "uint256",
          "name": "expiry",
          "type": "uint256"
        }
      ],
      "name": "VotesExpiredSignature",
      "type": "error"
    },
    {
      "anonymous": false,
      "inputs": [
        {
          "indexed": true,
          "internalType": "address",
          "name": "owner",
          "type": "address"
        },
        {
          "indexed": true,
          "internalType": "address",
          "name": "spender",
          "type": "address"
        },
        {
          "indexed": false,
          "internalType": "uint256",
          "name": "value",
          "type": "uint256"
        }
      ],
      "name": "Approval",
      "type": "event"
    },
    {
      "anonymous": false,
      "inputs": [
        {
          "indexed": true,
          "internalType": "address",
          "name": "delegator",
          "type": "address"
        },
        {
          "indexed": true,
          "internalType": "address",
          "name": "fromDelegate",
          "type": "address"
        },
        {
          "indexed": true,
          "internalType": "address",
          "name": "toDelegate",
          "type": "address"
        }
      ],
      "name": "DelegateChanged",
      "type": "event"
    },
    {
      "anonymous": false,
      "inputs": [
        {
          "indexed": true,
          "internalType": "address",
          "name": "delegate",
          "type": "address"
        },
        {
          "indexed": false,
          "internalType": "uint256",
          "name": "previousVotes",
          "type": "uint256"
        },
        {
          "indexed": false,
          "internalType": "uint256",
          "name": "newVotes",
          "type": "uint256"
        }
      ],
      "name": "DelegateVotesChanged",
      "type": "event"
    },
    {
      "anonymous": false,
      "inputs": [],
      "name": "EIP712DomainChanged",
      "type": "event"
    },
    {
      "anonymous": false,
      "inputs": [
        {
          "indexed": true,
          "internalType": "bytes32",
          "name": "role",
          "type": "bytes32"
        },
        {
          "indexed": true,
          "internalType": "bytes32",
          "name": "previousAdminRole",
          "type": "bytes32"
        },
        {
          "indexed": true,
          "internalType": "bytes32",
          "name": "newAdminRole",
          "type": "bytes32"
        }
      ],
      "name": "RoleAdminChanged",
      "type": "event"
    },
    {
      "anonymous": false,
      "inputs": [
        {
          "indexed": true,
          "internalType": "bytes32",
          "name": "role",
          "type": "bytes32"
        },
        {
          "indexed": true,
          "internalType": "address",
          "name": "account",
          "type": "address"
        },
        {
          "indexed": true,
          "internalType": "address",
          "name": "sender",
          "type": "address"
        }
      ],
      "name": "RoleGranted",
      "type": "event"
    },
    {
      "anonymous": false,
      "inputs": [
        {
          "indexed": true,
          "internalType": "bytes32",
          "name": "role",
          "type": "bytes32"
        },
        {
          "indexed": true,
          "internalType": "address",
          "name": "account",
          "type": "address"
        },
        {
          "indexed": true,
          "internalType": "address",
          "name": "sender",
          "type": "address"
        }
      ],
      "name": "RoleRevoked",
      "type": "event"
    },
    {
      "anonymous": false,
      "inputs": [
        {
          "indexed": true,
          "internalType": "address",
          "name": "from",
          "type": "address"
        },
        {
          "indexed": true,
          "internalType": "address",
          "name": "to",
          "type": "address"
        },
        {
          "indexed": false,
          "internalType": "uint256",
          "name": "value",
          "type": "uint256"
        }
      ],
      "name": "Transfer",
      "type": "event"
    },
    {
      "inputs": [],
      "name": "CLOCK_MODE",
      "outputs": [
        {
          "internalType": "string",
          "name": "",
          "type": "string"
        }
      ],
      "stateMutability": "view",
      "type": "function"
    },
    {
      "inputs": [],
      "name": "DEFAULT_ADMIN_ROLE",
      "outputs": [
        {
          "internalType": "bytes32",
          "name": "",
          "type": "bytes32"
        }
      ],
      "stateMutability": "view",
      "type": "function"
    },
    {
      "inputs": [],
      "name": "DOMAIN_SEPARATOR",
      "outputs": [
        {
          "internalType": "bytes32",
          "name": "",
          "type": "bytes32"
        }
      ],
      "stateMutability": "view",
      "type": "function"
    },
    {
      "inputs": [],
      "name": "MINTER_ROLE",
      "outputs": [
        {
          "internalType": "bytes32",
          "name": "",
          "type": "bytes32"
        }
      ],
      "stateMutability": "view",
      "type": "function"
    },
    {
      "inputs": [
        {
          "internalType": "address",
          "name": "owner",
          "type": "address"
        },
        {
          "internalType": "address",
          "name": "spender",
          "type": "address"
        }
      ],
      "name": "allowance",
      "outputs": [
        {
          "internalType": "uint256",
          "name": "",
          "type": "uint256"
        }
      ],
      "stateMutability": "view",
      "type": "function"
    },
    {
      "inputs": [
        {
          "internalType": "address",
          "name": "spender",
          "type": "address"
        },
        {
          "internalType": "uint256",
          "name": "value",
          "type": "uint256"
        }
      ],
      "name": "approve",
      "outputs": [
        {
          "internalType": "bool",
          "name": "",
          "type": "bool"
        }
      ],
      "stateMutability": "nonpayable",
      "type": "function"
    },
    {
      "inputs": [
        {
          "internalType": "address",
          "name": "account",
          "type": "address"
        }
      ],
      "name": "balanceOf",
      "outputs": [
        {
          "internalType": "uint256",
          "name": "",
          "type": "uint256"
        }
      ],
      "stateMutability": "view",
      "type": "function"
    },
    {
      "inputs": [
        {
          "internalType": "address",
          "name": "from",
          "type": "address"
        },
        {
          "internalType": "uint256",
          "name": "amount",
          "type": "uint256"
        }
      ],
      "name": "burn",
      "outputs": [],
      "stateMutability": "nonpayable",
      "type": "function"
    },
    {
      "inputs": [
        {
          "internalType": "address",
          "name": "account",
          "type": "address"
        },
        {
          "internalType": "uint32",
          "name": "pos",
          "type": "uint32"
        }
      ],
      "name": "checkpoints",
      "outputs": [
        {
          "components": [
            {
              "internalType": "uint48",
              "name": "_key",
              "type": "uint48"
            },
            {
              "internalType": "uint208",
              "name": "_value",
              "type": "uint208"
            }
          ],
          "internalType": "struct Checkpoints.Checkpoint208",
          "name": "",
          "type": "tuple"
        }
      ],
      "stateMutability": "view",
      "type": "function"
    },
    {
      "inputs": [],
      "name": "clock",
      "outputs": [
        {
          "internalType": "uint48",
          "name": "",
          "type": "uint48"
        }
      ],
      "stateMutability": "view",
      "type": "function"
    },
    {
      "inputs": [],
      "name": "decimals",
      "outputs": [
        {
          "internalType": "uint8",
          "name": "",
          "type": "uint8"
        }
      ],
      "stateMutability": "view",
      "type": "function"
    },
    {
      "inputs": [
        {
          "internalType": "address",
          "name": "delegatee",
          "type": "address"
        }
      ],
      "name": "delegate",
      "outputs": [],
      "stateMutability": "nonpayable",
      "type": "function"
    },
    {
      "inputs": [
        {
          "internalType": "address",
          "name": "delegatee",
          "type": "address"
        },
        {
          "internalType": "uint256",
          "name": "nonce",
          "type": "uint256"
        },
        {
          "internalType": "uint256",
          "name": "expiry",
          "type": "uint256"
        },
        {
          "internalType": "uint8",
          "name": "v",
          "type": "uint8"
        },
        {
          "internalType": "bytes32",
          "name": "r",
          "type": "bytes32"
        },
        {
          "internalType": "bytes32",
          "name": "s",
          "type": "bytes32"
        }
      ],
      "name": "delegateBySig",
      "outputs": [],
      "stateMutability": "nonpayable",
      "type": "function"
    },
    {
      "inputs": [
        {
          "internalType": "address",
          "name": "account",
          "type": "address"
        }
      ],
      "name": "delegates",
      "outputs": [
        {
          "internalType": "address",
          "name": "",
          "type": "address"
        }
      ],
      "stateMutability": "view",
      "type": "function"
    },
    {
      "inputs": [],
      "name": "eip712Domain",
      "outputs": [
        {
          "internalType": "bytes1",
          "name": "fields",
          "type": "bytes1"
        },
        {
          "internalType": "string",
          "name": "name",
          "type": "string"
        },
        {
          "internalType": "string",
          "name": "version",
          "type": "string"
        },
        {
          "internalType": "uint256",
          "name": "chainId",
          "type": "uint256"
        },
        {
          "internalType": "address",
          "name": "verifyingContract",
          "type": "address"
        },
        {
          "internalType": "bytes32",
          "name": "salt",
          "type": "bytes32"
        },
        {
          "internalType": "uint256[]",
          "name": "extensions",
          "type": "uint256[]"
        }
      ],
      "stateMutability": "view",
      "type": "function"
    },
    {
      "inputs": [
        {
          "internalType": "uint256",
          "name": "timepoint",
          "type": "uint256"
        }
      ],
      "name": "getPastTotalSupply",
      "outputs": [
        {
          "internalType": "uint256",
          "name": "",
          "type": "uint256"
        }
      ],
      "stateMutability": "view",
      "type": "function"
    },
    {
      "inputs": [
        {
          "internalType": "address",
          "name": "account",
          "type": "address"
        },
        {
          "internalType": "uint256",
          "name": "timepoint",
          "type": "uint256"
        }
      ],
      "name": "getPastVotes",
      "outputs": [
        {
          "internalType": "uint256",
          "name": "",
          "type": "uint256"
        }
      ],
      "stateMutability": "view",
      "type": "function"
    },
    {
      "inputs": [
        {
          "internalType": "bytes32",
          "name": "role",
          "type": "bytes32"
        }
      ],
      "name": "getRoleAdmin",
      "outputs": [
        {
          "internalType": "bytes32",
          "name": "",
          "type": "bytes32"
        }
      ],
      "stateMutability": "view",
      "type": "function"
    },
    {
      "inputs": [
        {
          "internalType": "address",
          "name": "account",
          "type": "address"
        }
      ],
      "name": "getVotes",
      "outputs": [
        {
          "internalType": "uint256",
          "name": "",
          "type": "uint256"
        }
      ],
      "stateMutability": "view",
      "type": "function"
    },
    {
      "inputs": [
        {
          "internalType": "bytes32",
          "name": "role",
          "type": "bytes32"
        },
        {
          "internalType": "address",
          "name": "account",
          "type": "address"
        }
      ],
      "name": "grantRole",
      "outputs": [],
      "stateMutability": "nonpayable",
      "type": "function"
    },
    {
      "inputs": [
        {
          "internalType": "bytes32",
          "name": "role",
          "type": "bytes32"
        },
        {
          "internalType": "address",
          "name": "account",
          "type": "address"
        }
      ],
      "name": "hasRole",
      "outputs": [
        {
          "internalType": "bool",
          "name": "",
          "type": "bool"
        }
      ],
      "stateMutability": "view",
      "type": "function"
    },
    {
      "inputs": [
        {
          "internalType": "address",
          "name": "to",
          "type": "address"
        },
        {
          "internalType": "uint256",
          "name": "amount",
          "type": "uint256"
        }
      ],
      "name": "mint",
      "outputs": [],
      "stateMutability": "nonpayable",
      "type": "function"
    },
    {
      "inputs": [],
      "name": "name",
      "outputs": [
        {
          "internalType": "string",
          "name": "",
          "type": "string"
        }
      ],
      "stateMutability": "view",
      "type": "function"
    },
    {
      "inputs": [
        {
          "internalType": "address",
          "name": "owner",
          "type": "address"
        }
      ],
      "name": "nonces",
      "outputs": [
        {
          "internalType": "uint256",
          "name": "",
          "type": "uint256"
        }
      ],
      "stateMutability": "view",
      "type": "function"
    },
    {
      "inputs": [
        {
          "internalType": "address",
          "name": "account",
          "type": "address"
        }
      ],
      "name": "numCheckpoints",
      "outputs": [
        {
          "internalType": "uint32",
          "name": "",
          "type": "uint32"
        }
      ],
      "stateMutability": "view",
      "type": "function"
    },
    {
      "inputs": [
        {
          "internalType": "address",
          "name": "owner",
          "type": "address"
        },
        {
          "internalType": "address",
          "name": "spender",
          "type": "address"
        },
        {
          "internalType": "uint256",
          "name": "value",
          "type": "uint256"
        },
        {
          "internalType": "uint256",
          "name": "deadline",
          "type": "uint256"
        },
        {
          "internalType": "uint8",
          "name": "v",
          "type": "uint8"
        },
        {
          "internalType": "bytes32",
          "name": "r",
          "type": "bytes32"
        },
        {
          "internalType": "bytes32",
          "name": "s",
          "type": "bytes32"
        }
      ],
      "name": "permit",
      "outputs": [],
      "stateMutability": "nonpayable",
      "type": "function"
    },
    {
      "inputs": [
        {
          "internalType": "bytes32",
          "name": "role",
          "type": "bytes32"
        },
        {
          "internalType": "address",
          "name": "callerConfirmation",
          "type": "address"
        }
      ],
      "name": "renounceRole",
      "outputs": [],
      "stateMutability": "nonpayable",
      "type": "function"
    },
    {
      "inputs": [
        {
          "internalType": "bytes32",
          "name": "role",
          "type": "bytes32"
        },
        {
          "internalType": "address",
          "name": "account",
          "type": "address"
        }
      ],
      "name": "revokeRole",
      "outputs": [],
      "stateMutability": "nonpayable",
      "type": "function"
    },
    {
      "inputs": [
        {
          "internalType": "bytes4",
          "name": "interfaceId",
          "type": "bytes4"
        }
      ],
      "name": "supportsInterface",
      "outputs": [
        {
          "internalType": "bool",
          "name": "",
          "type": "bool"
        }
      ],
      "stateMutability": "view",
      "type": "function"
    },
    {
      "inputs": [],
      "name": "symbol",
      "outputs": [
        {
          "internalType": "string",
          "name": "",
          "type": "string"
        }
      ],
      "stateMutability": "view",
      "type": "function"
    },
    {
      "inputs": [],
      "name": "totalSupply",
      "outputs": [
        {
          "internalType": "uint256",
          "name": "",
          "type": "uint256"
        }
      ],
      "stateMutability": "view",
      "type": "function"
    },
    {
      "inputs": [
        {
          "internalType": "address",
          "name": "to",
          "type": "address"
        },
        {
          "internalType": "uint256",
          "name": "value",
          "type": "uint256"
        }
      ],
      "name": "transfer",
      "outputs": [
        {
          "internalType": "bool",
          "name": "",
          "type": "bool"
        }
      ],
      "stateMutability": "nonpayable",
      "type": "function"
    },
    {
      "inputs": [
        {
          "internalType": "address",
          "name": "from",
          "type": "address"
        },
        {
          "internalType": "address",
          "name": "to",
          "type": "address"
        },
        {
          "internalType": "uint256",
          "name": "value",
          "type": "uint256"
        }
      ],
      "name": "transferFrom",
      "outputs": [
        {
          "internalType": "bool",
          "name": "",
          "type": "bool"
        }
      ],
      "stateMutability": "nonpayable",
      "type": "function"
    }
  ],
  "bytecode": "0x610160604052348015610010575f5ffd5b506040518060400160405280601181526020017027a9a121102b37ba34b733902a37b5b2b760791b81525080604051806040016040528060018152602001603160f81b8152506040518060400160405280601181526020017027a9a121102b37ba34b733902a37b5b2b760791b8152506040518060400160405280600681526020016513d4d09091d560d21b81525081600390816100ae9190610366565b5060046100bb8282610366565b506100cb915083905060056101ab565b610120526100da8160066101ab565b61014052815160208084019190912060e052815190820120610100524660a05261016660e05161010051604080517f8b73c3c69bb8fe3d512ecc4cf759cc79239f7b179b0ffacaa9a75d522b39400f60208201529081019290925260608201524660808201523060a08201525f9060c00160405160208183030381529060405280519060200120905090565b60805250503060c0525061017a5f336101dd565b506101a57f9f2df0fed2c77648de5860a4cc508cd0818c85b8b8a1ab4ceeef8d981c8956a6336101dd565b50610478565b5f6020835110156101c6576101bf83610288565b90506101d7565b816101d18482610366565b5060ff90505b92915050565b5f828152600b602090815260408083206001600160a01b038516845290915281205460ff16610281575f838152600b602090815260408083206001600160a01b03861684529091529020805460ff191660011790556102393390565b6001600160a01b0316826001600160a01b0316847f2f8788117e7eff1d82e926ec794901d17c78024a50270940304540a733656f0d60405160405180910390a45060016101d7565b505f6101d7565b5f5f829050601f815111156102bb578260405163305a27a960e01b81526004016102b29190610420565b60405180910390fd5b80516102c682610455565b179392505050565b634e487b7160e01b5f52604160045260245ffd5b600181811c908216806102f657607f821691505b60208210810361031457634e487b7160e01b5f52602260045260245ffd5b50919050565b601f82111561036157805f5260205f20601f840160051c8101602085101561033f5750805b601f840160051c820191505b8181101561035e575f815560010161034b565b50505b505050565b81516001600160401b0381111561037f5761037f6102ce565b6103938161038d84546102e2565b8461031a565b6020601f8211600181146103c5575f83156103ae5750848201515b5f19600385901b1c1916600184901b17845561035e565b5f84815260208120601f198516915b828110156103f457878501518255602094850194600190920191016103d4565b508482101561041157868401515f19600387901b60f8161c191681555b50505050600190811b01905550565b602081525f82518060208401528060208501604085015e5f604082850101526040601f19601f83011684010191505092915050565b80516020808301519190811015610314575f1960209190910360031b1b16919050565b60805160a05160c05160e0516101005161012051610140516121d06104c95f395f61102401525f610ff701525f610d4a01525f610d2201525f610c7d01525f610ca701525f610cd101526121d05ff3fe608060405234801561000f575f5ffd5b50600436106101f2575f3560e01c806370a08231116101145780639dc29fac116100a9578063d505accf11610079578063d505accf1461046e578063d539139314610481578063d547741f146104a8578063dd62ed3e146104bb578063f1127ed8146104f3575f5ffd5b80639dc29fac1461042e578063a217fddf14610441578063a9059cbb14610448578063c3cda5201461045b575f5ffd5b806391d14854116100e457806391d14854146103e157806391ddadf4146103f457806395d89b41146104135780639ab24eb01461041b575f5ffd5b806370a08231146103785780637ecebe00146103a057806384b0196e146103b35780638e539e8c146103ce575f5ffd5b80633644e5151161018a5780634bf5d7e91161015a5780634bf5d7e9146102f2578063587cde1e146102fa5780635c19a95c1461033d5780636fcfff4514610350575f5ffd5b80633644e515146102b157806336568abe146102b95780633a46b1a8146102cc57806340c10f19146102df575f5ffd5b806323b872dd116101c557806323b872dd14610258578063248a9ca31461026b5780632f2ff15d1461028d578063313ce567146102a2575f5ffd5b806301ffc9a7146101f657806306fdde031461021e578063095ea7b31461023357806318160ddd14610246575b5f5ffd5b610209610204366004611dab565b610532565b60405190151581526020015b60405180910390f35b610226610568565b6040516102159190611e00565b610209610241366004611e2d565b6105f8565b6002545b604051908152602001610215565b610209610266366004611e55565b61060f565b61024a610279366004611e8f565b5f908152600b602052604090206001015490565b6102a061029b366004611ea6565b610632565b005b60405160128152602001610215565b61024a61065c565b6102a06102c7366004611ea6565b61066a565b61024a6102da366004611e2d565b6106a2565b6102a06102ed366004611e2d565b6106dc565b610226610710565b610325610308366004611ed0565b6001600160a01b039081165f908152600860205260409020541690565b6040516001600160a01b039091168152602001610215565b6102a061034b366004611ed0565b610788565b61036361035e366004611ed0565b610797565b60405163ffffffff9091168152602001610215565b61024a610386366004611ed0565b6001600160a01b03165f9081526020819052604090205490565b61024a6103ae366004611ed0565b6107a1565b6103bb6107ab565b6040516102159796959493929190611ee9565b61024a6103dc366004611e8f565b6107ed565b6102096103ef366004611ea6565b610811565b6103fc61083b565b60405165ffffffffffff9091168152602001610215565b610226610844565b61024a610429366004611ed0565b610853565b6102a061043c366004611e2d565b610873565b61024a5f81565b610209610456366004611e2d565b6108a7565b6102a0610469366004611f8f565b6108b4565b6102a061047c366004611fe3565b610975565b61024a7f9f2df0fed2c77648de5860a4cc508cd0818c85b8b8a1ab4ceeef8d981c8956a681565b6102a06104b6366004611ea6565b610aab565b61024a6104c9366004612049565b6001600160a01b039182165f90815260016020908152604080832093909416825291909152205490565b610506610501366004612071565b610acf565b60408051825165ffffffffffff1681526020928301516001600160d01b03169281019290925201610215565b5f6001600160e01b03198216637965db0b60e01b148061056257506301ffc9a760e01b6001600160e01b03198316145b92915050565b606060038054610577906120ae565b80601f01602080910402602001604051908101604052809291908181526020018280546105a3906120ae565b80156105ee5780601f106105c5576101008083540402835291602001916105ee565b820191905f5260205f20905b8154815290600101906020018083116105d157829003601f168201915b5050505050905090565b5f33610605818585610af3565b5060019392505050565b5f3361061c858285610b00565b610627858585610b76565b506001949350505050565b5f828152600b602052604090206001015461064c81610bd3565b6106568383610be0565b50505050565b5f610665610c71565b905090565b6001600160a01b03811633146106935760405163334bd91960e11b815260040160405180910390fd5b61069d8282610d9a565b505050565b5f6106cc6106af83610e05565b6001600160a01b0385165f90815260096020526040902090610e53565b6001600160d01b03169392505050565b7f9f2df0fed2c77648de5860a4cc508cd0818c85b8b8a1ab4ceeef8d981c8956a661070681610bd3565b61069d8383610f03565b606061071a610f37565b65ffffffffffff1661072a61083b565b65ffffffffffff1614610750576040516301bfc1c560e61b815260040160405180910390fd5b5060408051808201909152601d81527f6d6f64653d626c6f636b6e756d6265722666726f6d3d64656661756c74000000602082015290565b336107938183610f41565b5050565b5f61056282610fb2565b5f61056282610fd3565b5f6060805f5f5f60606107bc610ff0565b6107c461101d565b604080515f80825260208201909252600f60f81b9b939a50919850469750309650945092509050565b5f6108026107fa83610e05565b600a90610e53565b6001600160d01b031692915050565b5f918252600b602090815260408084206001600160a01b0393909316845291905290205460ff1690565b5f610665610f37565b606060048054610577906120ae565b6001600160a01b0381165f9081526009602052604081206108029061104a565b7f9f2df0fed2c77648de5860a4cc508cd0818c85b8b8a1ab4ceeef8d981c8956a661089d81610bd3565b61069d8383611081565b5f33610605818585610b76565b834211156108dd57604051632341d78760e11b8152600481018590526024015b60405180910390fd5b604080517fe48329057bfd03d55e49b547132e39cffd9c1820ad7b9d4c5307691425d15adf60208201526001600160a01b0388169181019190915260608101869052608081018590525f906109569061094e9060a001604051602081830303815290604052805190602001206110b5565b8585856110e1565b9050610962818761110d565b61096c8188610f41565b50505050505050565b834211156109995760405163313c898160e11b8152600481018590526024016108d4565b5f7f6e71edae12b1b97f4d1f60370fef10105fa2faae0126114a169c64845d6126c98888886109e48c6001600160a01b03165f90815260076020526040902080546001810190915590565b6040805160208101969096526001600160a01b0394851690860152929091166060840152608083015260a082015260c0810186905260e0016040516020818303038152906040528051906020012090505f610a3e826110b5565b90505f610a4d828787876110e1565b9050896001600160a01b0316816001600160a01b031614610a94576040516325c0072360e11b81526001600160a01b0380831660048301528b1660248201526044016108d4565b610a9f8a8a8a610af3565b50505050505050505050565b5f828152600b6020526040902060010154610ac581610bd3565b6106568383610d9a565b604080518082019091525f8082526020820152610aec838361115f565b9392505050565b61069d8383836001611193565b6001600160a01b038381165f908152600160209081526040808320938616835292905220545f198110156106565781811015610b6857604051637dc7a0d960e11b81526001600160a01b038416600482015260248101829052604481018390526064016108d4565b61065684848484035f611193565b6001600160a01b038316610b9f57604051634b637e8f60e11b81525f60048201526024016108d4565b6001600160a01b038216610bc85760405163ec442f0560e01b81525f60048201526024016108d4565b61069d838383611265565b610bdd81336112ff565b50565b5f610beb8383610811565b610c6a575f838152600b602090815260408083206001600160a01b03861684529091529020805460ff19166001179055610c223390565b6001600160a01b0316826001600160a01b0316847f2f8788117e7eff1d82e926ec794901d17c78024a50270940304540a733656f0d60405160405180910390a4506001610562565b505f610562565b5f306001600160a01b037f000000000000000000000000000000000000000000000000000000000000000016148015610cc957507f000000000000000000000000000000000000000000000000000000000000000046145b15610cf357507f000000000000000000000000000000000000000000000000000000000000000090565b610665604080517f8b73c3c69bb8fe3d512ecc4cf759cc79239f7b179b0ffacaa9a75d522b39400f60208201527f0000000000000000000000000000000000000000000000000000000000000000918101919091527f000000000000000000000000000000000000000000000000000000000000000060608201524660808201523060a08201525f9060c00160405160208183030381529060405280519060200120905090565b5f610da58383610811565b15610c6a575f838152600b602090815260408083206001600160a01b0386168085529252808320805460ff1916905551339286917ff6391f5c32d9c69d2a47ea670b442974b53935d1edc7fd64eb21e047a839171b9190a4506001610562565b5f5f610e0f61083b565b90508065ffffffffffff168310610e4a57604051637669fc0f60e11b81526004810184905265ffffffffffff821660248201526044016108d4565b610aec83611338565b81545f9081816005811115610eaf575f610e6c8461136e565b610e7690856120fa565b5f8881526020902090915081015465ffffffffffff9081169087161015610e9f57809150610ead565b610eaa81600161210d565b92505b505b5f610ebc878785856114c6565b90508015610ef657610ee087610ed36001846120fa565b5f91825260209091200190565b54600160301b90046001600160d01b0316610ef8565b5f5b979650505050505050565b6001600160a01b038216610f2c5760405163ec442f0560e01b81525f60048201526024016108d4565b6107935f8383611265565b5f61066543611338565b6001600160a01b038281165f8181526008602052604080822080548686166001600160a01b0319821681179092559151919094169392849290917f3134e8a2e6d97e929a7e54011ea5485d7d196dd5f0ba4d4ef95803e8e3fc257f9190a461069d8183610fad8661151c565b611539565b6001600160a01b0381165f90815260096020526040812054610562906116a2565b6001600160a01b0381165f90815260076020526040812054610562565b60606106657f000000000000000000000000000000000000000000000000000000000000000060056116d2565b60606106657f000000000000000000000000000000000000000000000000000000000000000060066116d2565b80545f9080156110795761106383610ed36001846120fa565b54600160301b90046001600160d01b0316610aec565b5f9392505050565b6001600160a01b0382166110aa57604051634b637e8f60e11b81525f60048201526024016108d4565b610793825f83611265565b5f6105626110c1610c71565b8360405161190160f01b8152600281019290925260228201526042902090565b5f5f5f5f6110f18888888861177b565b9250925092506111018282611843565b50909695505050505050565b6001600160a01b0382165f90815260076020526040902080546001810190915581811461069d576040516301d4b62360e61b81526001600160a01b0384166004820152602481018290526044016108d4565b604080518082019091525f80825260208201526001600160a01b0383165f908152600960205260409020610aec90836118fb565b6001600160a01b0384166111bc5760405163e602df0560e01b81525f60048201526024016108d4565b6001600160a01b0383166111e557604051634a1406b160e11b81525f60048201526024016108d4565b6001600160a01b038085165f908152600160209081526040808320938716835292905220829055801561065657826001600160a01b0316846001600160a01b03167f8c5be1e5ebec7d5bd14f71427d1e84f3dd0314c0f7b2291e5b200ac8c7c3b9258460405161125791815260200190565b60405180910390a350505050565b6001600160a01b038316158061128257506001600160a01b038216155b6112f45760405162461bcd60e51b815260206004820152603a60248201527f546f6b656e79206e65206d6f7a686e6120706572656b6164757661747921205660448201527f6f6e79207072797669617a616e6920646f206b7661727469727900000000000060648201526084016108d4565b61069d838383611968565b6113098282610811565b6107935760405163e2517d3f60e01b81526001600160a01b0382166004820152602481018390526044016108d4565b5f65ffffffffffff82111561136a576040516306dfcc6560e41b815260306004820152602481018390526044016108d4565b5090565b5f6001821161137b575090565b816001600160801b82106113945760809190911c9060401b5b6801000000000000000082106113af5760409190911c9060201b5b64010000000082106113c65760209190911c9060101b5b6201000082106113db5760109190911c9060081b5b61010082106113ef5760089190911c9060041b5b601082106114025760049190911c9060021b5b6004821061140e5760011b5b600302600190811c9081858161142657611426612120565b048201901c9050600181858161143e5761143e612120565b048201901c9050600181858161145657611456612120565b048201901c9050600181858161146e5761146e612120565b048201901c9050600181858161148657611486612120565b048201901c9050600181858161149e5761149e612120565b048201901c90506114bd8185816114b7576114b7612120565b04821190565b90039392505050565b5f5b81831015611514575f85815260209020838316600285851804019081015465ffffffffffff868116911611156115005780925061150e565b61150b81600161210d565b93505b506114c8565b509392505050565b6001600160a01b0381165f90815260208190526040812054610562565b816001600160a01b0316836001600160a01b03161415801561155a57505f81115b1561069d576001600160a01b03831615611601576001600160a01b0383165f908152600960205260408120819061159c906119ce611597866119d9565b611a0c565b6001600160d01b031691506001600160d01b03169150846001600160a01b03167fdec2bacdd2f05b59de34da9b523dff8be42e5e38e818c82fdb0bae774387a72483836040516115f6929190918252602082015260400190565b60405180910390a250505b6001600160a01b0382161561069d576001600160a01b0382165f908152600960205260408120819061163990611a44611597866119d9565b6001600160d01b031691506001600160d01b03169150836001600160a01b03167fdec2bacdd2f05b59de34da9b523dff8be42e5e38e818c82fdb0bae774387a7248383604051611693929190918252602082015260400190565b60405180910390a25050505050565b5f63ffffffff82111561136a576040516306dfcc6560e41b815260206004820152602481018390526044016108d4565b606060ff83146116ec576116e583611a4f565b9050610562565b8180546116f8906120ae565b80601f0160208091040260200160405190810160405280929190818152602001828054611724906120ae565b801561176f5780601f106117465761010080835404028352916020019161176f565b820191905f5260205f20905b81548152906001019060200180831161175257829003601f168201915b50505050509050610562565b5f80807f7fffffffffffffffffffffffffffffff5d576e7357a4501ddfe92f46681b20a08411156117b457505f91506003905082611839565b604080515f808252602082018084528a905260ff891692820192909252606081018790526080810186905260019060a0016020604051602081039080840390855afa158015611805573d5f5f3e3d5ffd5b5050604051601f1901519150506001600160a01b03811661183057505f925060019150829050611839565b92505f91508190505b9450945094915050565b5f82600381111561185657611856612134565b0361185f575050565b600182600381111561187357611873612134565b036118915760405163f645eedf60e01b815260040160405180910390fd5b60028260038111156118a5576118a5612134565b036118c65760405163fce698f760e01b8152600481018290526024016108d4565b60038260038111156118da576118da612134565b03610793576040516335e2f38360e21b8152600481018290526024016108d4565b604080518082019091525f8082526020820152825f018263ffffffff168154811061192857611928612148565b5f9182526020918290206040805180820190915291015465ffffffffffff81168252600160301b90046001600160d01b0316918101919091529392505050565b611973838383611a8c565b6001600160a01b0383166119c3575f61198b60025490565b90506001600160d01b03808211156119c057604051630e58ae9360e11b815260048101839052602481018290526044016108d4565b50505b61069d838383611bb2565b5f610aec828461215c565b5f6001600160d01b0382111561136a576040516306dfcc6560e41b815260d06004820152602481018390526044016108d4565b5f5f611a37611a1961083b565b611a2f611a258861104a565b868863ffffffff16565b879190611c27565b915091505b935093915050565b5f610aec828461217b565b60605f611a5b83611c34565b6040805160208082528183019092529192505f91906020820181803683375050509182525060208101929092525090565b6001600160a01b038316611ab6578060025f828254611aab919061210d565b90915550611b269050565b6001600160a01b0383165f9081526020819052604090205481811015611b085760405163391434e360e21b81526001600160a01b038516600482015260248101829052604481018390526064016108d4565b6001600160a01b0384165f9081526020819052604090209082900390555b6001600160a01b038216611b4257600280548290039055611b60565b6001600160a01b0382165f9081526020819052604090208054820190555b816001600160a01b0316836001600160a01b03167fddf252ad1be2c89b69c2b068fc378daa952ba7f163c4a11628f55a4df523b3ef83604051611ba591815260200190565b60405180910390a3505050565b6001600160a01b038316611bd457611bd1600a611a44611597846119d9565b50505b6001600160a01b038216611bf657611bf3600a6119ce611597846119d9565b50505b6001600160a01b038381165f9081526008602052604080822054858416835291205461069d92918216911683611539565b5f80611a37858585611c5b565b5f60ff8216601f81111561056257604051632cd44ac360e21b815260040160405180910390fd5b82545f9081908015611d51575f611c7787610ed36001856120fa565b805490915065ffffffffffff80821691600160301b90046001600160d01b0316908816821115611cba57604051632520601d60e01b815260040160405180910390fd5b8765ffffffffffff168265ffffffffffff1603611cf357825465ffffffffffff16600160301b6001600160d01b03891602178355611d43565b6040805180820190915265ffffffffffff808a1682526001600160d01b03808a1660208085019182528d54600181018f555f8f81529190912094519151909216600160301b029216919091179101555b9450859350611a3c92505050565b50506040805180820190915265ffffffffffff80851682526001600160d01b0380851660208085019182528854600181018a555f8a815291822095519251909316600160301b029190931617920191909155905081611a3c565b5f60208284031215611dbb575f5ffd5b81356001600160e01b031981168114610aec575f5ffd5b5f81518084528060208401602086015e5f602082860101526020601f19601f83011685010191505092915050565b602081525f610aec6020830184611dd2565b80356001600160a01b0381168114611e28575f5ffd5b919050565b5f5f60408385031215611e3e575f5ffd5b611e4783611e12565b946020939093013593505050565b5f5f5f60608486031215611e67575f5ffd5b611e7084611e12565b9250611e7e60208501611e12565b929592945050506040919091013590565b5f60208284031215611e9f575f5ffd5b5035919050565b5f5f60408385031215611eb7575f5ffd5b82359150611ec760208401611e12565b90509250929050565b5f60208284031215611ee0575f5ffd5b610aec82611e12565b60ff60f81b8816815260e060208201525f611f0760e0830189611dd2565b8281036040840152611f198189611dd2565b606084018890526001600160a01b038716608085015260a0840186905283810360c0850152845180825260208087019350909101905f5b81811015611f6e578351835260209384019390920191600101611f50565b50909b9a5050505050505050505050565b803560ff81168114611e28575f5ffd5b5f5f5f5f5f5f60c08789031215611fa4575f5ffd5b611fad87611e12565b95506020870135945060408701359350611fc960608801611f7f565b9598949750929560808101359460a0909101359350915050565b5f5f5f5f5f5f5f60e0888a031215611ff9575f5ffd5b61200288611e12565b965061201060208901611e12565b9550604088013594506060880135935061202c60808901611f7f565b9699959850939692959460a0840135945060c09093013592915050565b5f5f6040838503121561205a575f5ffd5b61206383611e12565b9150611ec760208401611e12565b5f5f60408385031215612082575f5ffd5b61208b83611e12565b9150602083013563ffffffff811681146120a3575f5ffd5b809150509250929050565b600181811c908216806120c257607f821691505b6020821081036120e057634e487b7160e01b5f52602260045260245ffd5b50919050565b634e487b7160e01b5f52601160045260245ffd5b81810381811115610562576105626120e6565b80820180821115610562576105626120e6565b634e487b7160e01b5f52601260045260245ffd5b634e487b7160e01b5f52602160045260245ffd5b634e487b7160e01b5f52603260045260245ffd5b6001600160d01b038281168282160390811115610562576105626120e6565b6001600160d01b038181168382160190811115610562576105626120e656fea264697066735822122026cd2bed4b8fb371539575c2aafecfbc334ee1210ae13a52cccab63842ebdc6964736f6c634300081c0033",
  "linkReferences": {},
  "deployedLinkReferences": {},
  "immutableReferences": {
    "5528": [
      {
        "length": 32,
        "start": 3281
      }
    ],
    "5530": [
      {
        "length": 32,
        "start": 3239
      }
    ],
    "5532": [
      {
        "length": 32,
        "start": 3197
      }
    ],
    "5534": [
      {
        "length": 32,
        "start": 3362
      }
    ],
    "5536": [
      {
        "length": 32,
        "start": 3402
      }
    ],
    "5539": [
      {
        "length": 32,
        "start": 4087
      }
    ],
    "5542": [
      {
        "length": 32,
        "start": 4132
      }
    ]
  },
  "inputSourceName": "project/contracts/OSBB_DAO.sol",
  "buildInfoId": "solc-0_8_28-b0a5c4c1d672119d5bb1cd1773a9e34f1588c2f7"
}